:020000041004E6
:10000000006000200D7A0410F5780410110404102B
:10001000AA5555AA45554C420000000000000000BA
:100020000000000000000000000000005562041005
:100030000000000000000000F1610410B56204102F
:1000400091400410F9780410000000000000000046
:1000500071320410FD780410010E0410157904109B
:100060000000000000000000000000000000000090
:1000700000000000197904101D7904102179041082
:1000800000000000017904100579041009790410BA
:100090000D790410117904102979041025790410C0
:1000A0000000000000000000000000000000000050
:1000B0000000000000000000000000000000000040
:1000C000EFF31482EFF309811C4880F31488BFF327
:1000D0006F8FF0B543464C4655465E466746F8B4CA
:1000E000174CEFF30883236006B4164C2068164CB7
:1000F0002060164C2068164C2060164C2068164C68
:100100002060164C276800202060BFF34F8F30BF5F
:1001100027600B4C246884F3088882B003BCF8BCC9
:100120009846A146AA46B346BC46F0BC04BC80F340
:10013000098881F31488BFF36F8F10470000000017
:100140000800002004ED00E0E422002024ED00E09F
:10015000E022002000E200E0DC2200200800204035
:10016000002934D00123002210B488422CD301246A
:100170002407A14204D2814202D209011B01F8E7FF
:10018000E400A14204D2814202D249005B00F8E7B8
:10019000884201D3401A1A434C08A04202D3001BE4
:1001A0005C0822438C08A04202D3001B9C08224317
:1001B000CC08A04202D3001BDC082243002803D055
:1001C0001B0901D00909E3E7100010BC704701B515
:1001D000002000F00BF802BD0029F8D003B5FFF7AE
:1001E000C1FF0EBC4243891A1847C0467047C0463B
:1001F000844608006146FFE71FB508F026FA00288C
:1002000001D40021C8421FBD10B508F0BBF940421F
:10021000013010BD10B508F018FA002801DB0020ED
:1002200010BD012010BDC04610B508F00EFA002820
:1002300001DD002010BD012010BDC04610B508F042
:10024000C6F9002801DC002010BD012010BDC04609
:1002500010B508F0BCF9002801DA002010BD01201B
:1002600010BDC046002B11D1002A0FD1002900D1AA
:10027000002802D00021C943080007B4024802A1A7
:100280004018029003BDC04665FFFFFF03B46846F7
:1002900001B5029807F098FE019B9E4602B00CBC87
:1002A0007047C04602B4714649084900095C4900DC
:1002B0008E4402BC7047C04603B4714649084000F2
:1002C0004900095A49008E4403BC7047D0400B00D6
:1002D000D1409C46203AD340184352426346934053
:1002E000184370479140030090409C46203A934049
:1002F000194352426346D340194370478446100065
:1003000062468C461900634600E0C0461FB50AF0FD
:10031000D9F8002801D40021C8421FBD10B50AF049
:100320002BF84042013010BD10B50AF0CBF8002880
:1003300001DB002010BD012010BDC04610B50AF041
:10034000C1F8002801DD002010BD012010BDC0460D
:1003500010B50AF053F8002801DC002010BD012080
:1003600010BDC04610B50AF049F8002801DA002097
:1003700010BD012010BDC0461C2101231B04984262
:1003800001D3000C10391B0A984201D3000A083926
:100390001B09984201D30009043902A2105C4018DD
:1003A0007047C04604030202010101010000000081
:1003B0000000000010B5002903D1FFF7DDFF203059
:1003C00002E00800FFF7D8FF10BDC0460023C25C62
:1003D0000133002AFBD1581E7047000003B4714658
:1003E000490840004900095E49008E4403BC70473B
:1003F00010B503F015FB054803F03CFC00F00EF8C7
:1004000000F016F805F054FAFEE7C04694180610FE
:10041000802010B5C00106F0DFFDFEE710B500F04A
:1004200099F802F0AFF901F07BFD00F073FE10BD0A
:1004300010B51B4B84B002931A4B80220193022308
:100440001949009352000023184805F0BBF8012415
:10045000C022174B17490293174B00940193520087
:100460000023164805F0AEF88022154B154902937B
:10047000154B0094019352000023144805F0A2F894
:10048000134BC0220293134B1349019303235200D1
:1004900000931248002305F095F804B010BDC04643
:1004A0004018002040140020C418061059090410F8
:1004B000DC130020C8180610DC0D0020892704106A
:1004C000780D0020D018061078090020B5210410FE
:1004D0001409002014030020D818061081140410F9
:1004E00070B5040001E005F0B7FE00F0B1FB18287C
:1004F000F9D900F06BFC7D2003F00EF801E005F067
:10050000ABFE012003F038F80128F8D1260000F0F6
:1005100069FC0C360E4D01E005F09EFE00F098FBE4
:100520000028F9D000F052FC2800216803F00CF8F4
:1005300001E005F091FE012003F01EF80128F8D13A
:10054000043400F04FFC0435B442E7D170BDC0461E
:1005500000E8071030B51E4C0025220083B02300B0
:10056000102150320820009503F096FED422D821A5
:10057000043CA552D53A62500C3162500C316250A5
:10058000103120606250134C2378002B0ED1237859
:10059000002B0BD01048FFF7A3FF104803F020FBFF
:1005A0002078C0B203F014FB03B030BD62680C4B7E
:1005B0009A42EFD8A0680021FFF74AFE0028E9D050
:1005C000A0680849FFF730FE0028E9D1E2E7C046FD
:1005D000A818002000E8071014340610DC180610D4
:1005E0003F420F000000C842022310B584B00093C0
:1005F000074B01AA13CB13C20122064B69461868A8
:100600005242002303F0AEFE002004B010BDC046ED
:1006100014340610A4180020014B98687047C04697
:1006200000E8071070B5002186B0041C0190FFF7A8
:100630000FFE002827D01549201CFFF7F5FD0028E4
:1006400021D0134D201CA968FFF7DEFD002802D041
:10065000002006B070BD0223029303AB45CD45C315
:1006600001220C4B02A9186852420023CC6003F00F
:1006700079FE00F0DDFA0028EAD1042201A9043055
:1006800000F044FBE4E701204042E2E70000C842FA
:1006900000E80710A4180020014B58687047C046B6
:1006A00000E8071070B5104B040084B0984218D8C9
:1006B0000E4D6B68834211D000F0D8FA002810D19B
:1006C0000223009301AB45CD45C30122084B694687
:1006D000186852420023029403F044FE002004B044
:1006E00070BD01204042FAE73F420F0000E80710CA
:1006F000A4180020014B1878C0B2704700E807101A
:1007000070B50D4B04001A7884B0824210D00222DA
:10071000009201AA61CB61C201226946074B524295
:10072000186800230C7103F01DFE200003F050FA3E
:10073000002004B070BDC04600E80710A4180020D7
:1007400010B503F061FC002805D1054803F048FA14
:1007500003F062FC10BD034803F042FAFAE7C0461A
:10076000341906100C1906100122E42370B5D425A3
:10077000434C5242E250635DDA071AD402221A4215
:1007800006D0D521615C0A4238D0D522A35470BD71
:10079000082210211A40194212D0002A47D15B07C3
:1007A0003ED5FA220321C820520001F0CBFB635D45
:1007B000EBE700220121002001F0C4FB635DE4E7C8
:1007C000D523E35C1940002A20D0002944D103F04E
:1007D000A9FB2C4B9968FFF727FDC822002849D0B8
:1007E0000821C82001F0AEFB2000E423264AE830AF
:1007F000E25005F0EDF9D423E35CC6E7FE220221C6
:10080000C820920501F0B8FB635DBEE70022002915
:100810001CD0FA200021000101F094FB635DB4E7D5
:100820000321C820194A01F0A7FB635DADE703F07F
:1008300079FB144B9968FFF7F7FCC822002813D006
:100840000821C82001F07EFB635D9EE70021C820DF
:1008500001F078FB635D98E7FA2364220121002010
:100860005B0001F0A5FBBFE70421C82001F06AFB93
:10087000635D8AE70421C82001F064FBB4E7C04649
:10088000A418002000E80710C8AF0000CDCC4C3EF3
:1008900070B5D424094D2B5DDB060BD5084803F059
:1008A0009FF903F09DFB04222B5D13432B55FFF7AB
:1008B0005BFF70BD034803F093F9FAE7A41800202A
:1008C0004C1906106419061070B5802006F07CFBE8
:1008D000204C012810D0FC23E35C002B0BD1F0331B
:1008E000E358013303D0D425635D9B071FD5012254
:1008F000F0235242E25070BDD4250226635D1E42B1
:100900000DD0802301225B0052420020E25000F013
:100910000FFD635DB3436355FFF726FFEBE7200050
:10092000F0239622F430E25005F052F9E3E701207B
:1009300000F0FEFC0222635D13436355FFF714FFD2
:100940008023FA22601D5B005200FF30E25005F068
:100950003FF9CCE7A4180020F0B5DE4657464546DF
:100960004E46E0B5D8278DB004228F49042000F010
:10097000CDF9012003F07EFB08AB98468B4B8C4CE5
:1009800004938C4B05938C4B03938C4B01938C4BB2
:1009900002938C4B009380235B0099464B46E426E0
:1009A000F025E1583EE0E359013307D02100200053
:1009B000D831DC3005F02CF9002876D1A359013369
:1009C00007D021002000E431E83005F021F90028AB
:1009D00062D16359013321D0F4239A462100A24405
:1009E0005046F03105F014F9002817D001235B427E
:1009F0006351FD339B46E35C002B59D100F0B2FC00
:100A0000502278230721002001F0D2FA1E235046FD
:100A1000635105F0DDF801235A46A3544B46E158D3
:100A20004B1C4ED1A259E359934200D9130062598D
:100A30009A4200D91A008A4200D90A004146206829
:100A400003F0DAFE0128AED143461B78012B57D0C4
:100A5000022B4ED0002BA6D143461B799A46002B81
:100A60006CD0012B9FD103F0FBFA8346002800D104
:100A700086E0049803F0B4F8524606ABDA71D91D4B
:100A80000122012000F042F9D4220821A35C0B438B
:100A9000A354FFF769FE86E7012300225B42002191
:100AA0000020A35101F04EFA93E703F0CDF885E75B
:100AB00000235A46A35403F0C7F84B46E1584B1C99
:100AC000B0D0611C601DFF31FF3005F0A1F8002897
:100AD00000D163E701234A465B420020A35000F0A7
:100AE00027FCD4220221A35C8B43A354FFF73CFED6
:100AF00051E709A8FFF7F4FC009803F071F852E7FA
:100B000043461B79012B29D0022B1AD0002B00D091
:100B100049E7039803F064F88020C00106F05CFA0E
:100B20002000294BDC30E35105F052F8D42201219A
:100B3000A35C0B43A354FFF717FE34E7FFF7C4FE93
:100B400031E7029803F04CF803F032FAD422142172
:100B5000A35C8B43A354FFF707FE24E7019803F03F
:100B60003FF88023012202215B005242E250D5323D
:100B7000A35C8B4310210B43A354FFF7F5FD12E751
:100B8000059803F02DF85A4606ABDA71D91D0122FB
:100B9000012000F0BBF8D4220821A35C8B43A354AE
:100BA000FFF7E2FDFFE6C04608E80710E41906106B
:100BB000A4180020FC19061090190610C819061078
:100BC000AC190610141A0610B80B0000F0B50B4B48
:100BD00005001E680C0085B0002E0CD06F46102258
:100BE0000021684609F058FD0023220069463000C4
:100BF0003D7103F057FD05B0F0BDC046A4180020BC
:100C000030B585B0050010220021684609F044FD8A
:100C10006C46012301222370044B69461868524236
:100C20000023257103F09EFB05B030BDA418002001
:100C300010B505F04BF8002806D0044B1B68181AB5
:100C400043425841C0B210BD0020FCE7B01900205B
:100C5000BC22054B10B59C5810F012F80100200082
:100C600010F008F810BDC046B0190020012300B5EF
:100C700087B004930023029310330193093B039040
:100C8000009301220023012101200CF0B3F903009D
:100C90000020002B01D107B000BD044A9B009958E9
:100CA000034802F09DFF01204042F4E79C34061007
:100CB000301A0610012130B5114D83B004004942AD
:100CC000286E03F0FFFE6A4600232100D01DD37179
:100CD0000CF06EF900280AD16B46DC790023002263
:100CE0000021286E03F03EFB200003B030BD01243C
:100CF000044B8000C158044802F072FF6442EDE7E3
:100D0000B01900209C340610541A0610F0B5C646DF
:100D100000B50E00140084B0042849D8264B80008A
:100D20001B58264D9F46CC23EB5A9846244B98459A
:100D30003ED00027002C1DD00121286E494203F02F
:100D4000C1FEC423E95A043BE85AE3B20293A3B2BA
:100D5000019700934246012303960CF01AFABA2336
:100D60002700E85400281AD1002300220021286E11
:100D700003F0F8FA380004B080BCB846F0BDCE23CA
:100D8000EB5A9846D2E7C623EB5A9846CEE7C823DB
:100D9000EB5A9846CAE7CA23EB5A9846C6E701279A
:100DA000084B8000C158084802F01AFF7F42DBE779
:100DB00001277F42DEE7C04620340610B01900202C
:100DC000FFFF00009C3406107C1A0610044B10B57F
:100DD000186E002803D00121494203F073FE10BDB4
:100DE000B0190020054B10B5186E002804D0002360
:100DF0000022002103F0B6FA10BDC046B019002051
:100E000010B5002482B0019410F040FD6B46694695
:100E1000DC70084B01AA58680331002303F042FC40
:100E2000019B002B03D08022034B52051A6002B0B5
:100E300010BDC046B019002004ED00E0F0B597B039
:100E40000AAD2A00494B13CB13C219880020118028
:100E50009B7893708023464A5B05995C08AA1170C1
:100E60004449595C51704449595C91704349595CFB
:100E7000D170FF21C900595C117141495B5C0621A9
:100E800053710CF09BF9041E02D0200017B0F0BD86
:100E9000002101200CF08EF9041EF6D139480FF024
:100EA0002DFE041EF1D1FF200FF050FC041EECD1EA
:100EB0000CF061F9041EE8D1334E1022331D01936A
:100EC000B31C00930221330001200CF07BF8041EB8
:100ED000DBD1370072880E23B426B43FB95B02938E
:100EE000019000930020002303950CF052F91E237B
:100EF000E1226B44D2001A80B822B85BB95A009341
:100F0000002202230CF03BF9041EBED100200CF09D
:100F1000BBF8041EB9D1FFF7BFFB012304930F33C5
:100F20000193093B039002940093012200230121C5
:100F300001200CF05FF8041EA7D10EAD2A00134B60
:100F400043CB43C249201968684411601B790021D2
:100F500013710E2209F0A0FB0D4B290010202B80ED
:100F60000FF0ECFDBA23F8548FE7C046A01A061024
:100F7000F4070000F5070000F6070000F70700007F
:100F8000F907000088240020641A00209C1706102E
:100F90000F090000F0B54E4645465746DE46E0B51F
:100FA0005A4B9FB01A0006A90800203270CA70C0C0
:100FB00012680AAC02601A0020003032E0CAE0C0B9
:100FC000126802601A000EA84032E0CAE0C012683F
:100FD00002601A0012A85032E0CAE0C01268026033
:100FE0001A0016A86032E0CAE0C0126870330260CE
:100FF0001AAA904661CB61C21B6802201360444B61
:101000000122994600930C230CF094F8002806D096
:101010001FB0F0BCBB46B246A946A046F0BDC423F3
:101020005B424B449B46C4239A465B4652469B5ABE
:1010300038219C464B46023305931023C33A049053
:1010400008301E0003930292019100902200604636
:101050000F3B36390CF04FF80028D9D15C46554685
:10106000645B0221A4464C46231D059333000724EC
:101070000233049002900093604603960194113B62
:101080000EAA0CF038F80028C2D157465D46ED5B39
:101090004F46BB1D012238210593330004900830D0
:1010A0001700029201910090039628000F3B12AAAC
:1010B00036390CF020F80028AAD1594655460423A9
:1010C0004D5B494602930831023B05910490009321
:1010D0000221280003960194023316AA0CF00BF8A3
:1010E000002895D15B4651465C5A4B460A3305931E
:1010F0003F230193353B0490009342462000039622
:101100000297063BC2390BF0F6FF81E79C170610E9
:10111000741A002030B5284C0023220083B025002B
:101120005032012100930820230003F0B5F821007C
:10113000083D68605C31012003F072FA28661F48A0
:101140000CF082F8BA242855002810D1FFF776FE5B
:10115000BA251B4C6055002814D1FFF71BFFBA2598
:10116000605500281DD1174802F03AFD08E0164BE3
:101170008000C158154802F033FD2B5D002BE5D0EF
:1011800003B030BD104B8000C158114802F028FD5B
:10119000635D002BF4D1FFF7FDFEBA2560550028F2
:1011A000E1D0094B8000C1580A4802F019FD635D87
:1011B000002BD8D0E4E7C046B81900209C380610B0
:1011C000B0190020E81A06109C340610B01A061058
:1011D000C81A0610081B0610F0B5C64600B5ACB01C
:1011E0006B4602A9D81D0BF0E3FE1E4B0400984687
:1011F000BA234246D05400280CD01B4BA400E1581F
:101200001A4802F0EDFC0020FFF7FAFC2CB080BC7D
:10121000B846F0BD6B46DF7902AD17AE002F0CD09B
:101220002B7801343370701C691C0622E4B209F07B
:10123000A4FA07350736BC42F2D10BF0B5FEBA2549
:101240004346041E5855D8D16B46D8790028DDD0C6
:10125000012217A902F0BAFA4346041E5855D5D008
:10126000CBE7C046B01900209C340610281B06109E
:1012700070B5C2264022294C0500A35D9343A355B7
:101280005BB2002B2CDB0BF007FFBA23E0540028E5
:101290000BD0462809D0224B8000C158214802F0CB
:1012A0009FFC0020FFF7ACFC70BD002D26D08021F4
:1012B000802000230222890040000BF0F7FEBA23B1
:1012C000E0540028E7D1C2224021A35C16480B431A
:1012D000A35402F085FCBA23E05C0028E4D0DAE7EE
:1012E000C0231321E05A0BF0EFFEBA23E054002D87
:1012F000DAD04022A35D1343A355D5E7B421F020F3
:1013000003230222C90080000BF0D0FEBA23E05470
:101310000028C0D1054802F063FCDCE7B0190020CA
:101320009C340610881B06104C1B0610701B061000
:10133000012170B50A4D04004942286E03F0C2FB3A
:10134000C223EB5C5B06DB0FA34202D02000FFF759
:101350008FFF286E00230022002103F003F870BDE8
:10136000B0190020012170B5134C4942206E03F0E2
:10137000A9FB0BF015FEBA23E054002813D10F4847
:1013800002F02EFCFFF728FFC223E05C0025400698
:10139000C00FFFF76DFF002300220021206E02F036
:1013A000E1FF280070BD0125054B8000C1580548AC
:1013B00002F016FC6D42EEE7B0190020D81B0610B3
:1013C0009C340610AC1B061030B5C2250223294CF4
:1013D00085B0605D03420AD10423034215D1012385
:1013E00003421BD10823034224D105B030BD9843EA
:1013F0006055BE33E05A0BF063FEBA23E054002878
:101400002DD1605D04230342E9D0C2259843605585
:10141000FFF7E2FE0123605D0342E3D00200C22534
:1014200040069A43C00F6255FFF722FF0823605D14
:101430000342DAD09843BA33E05402F073FDCC2370
:101440000390E15A083BE05A03AB009300220423C7
:101450000BF095FEC023E05A0BF087FEC5E7064B64
:101460008000C158054802F0BBFB0020FFF7C8FB15
:10147000605DC7E7B01900209C340610FC1B061005
:1014800030B583B004F022FCBA23214C2060E35C29
:10149000002B38D10121206E494203F013FBFFF7E6
:1014A0009BFE0020FFF7E4FE002300220021206EB7
:1014B00002F058FF6B46DD1D05E0002300220021ED
:1014C000206E02F04FFF012229005242606803F0B3
:1014D00093F90121206E494203F0F4FA2B78002B96
:1014E000EBD18020C00105F077FD03E00BF06AFE30
:1014F000FFF76AFF1FF0CAF90028F7D08020C0016B
:1015000005F06EFDD9E70020FFF77AFBC2E7C04681
:10151000B019002070B506000D0014000D4802F04F
:101520005FFB31000C4802F05BFB29000B4802F026
:1015300057FB21000A4802F053FBC2217F23094ACE
:10154000505C03400120034302205354FFF758FB33
:1015500070BDC046241C0610481C0610581C0610FE
:10156000741C0610B0190020F0B5DE4657464E46F2
:101570004546E0B50D0087B01F0010AB10CB0590BD
:101580001B8837489B4612AB1B8816009A4613AB44
:101590001B88994614AB1B78984602F021FB0599ED
:1015A000304802F01DFB29002F4802F019FB002EE5
:1015B0004CD12E492E4802F013FB002F4CD12D495F
:1015C0002D4802F00DFB2678E378227961790296A6
:1015D00066782A480196A478009402F001FB5846E8
:1015E00007F062FB08F016FE0022254B08F0E8F831
:1015F00008F0DEFD234B0100180002F0F1FA51461D
:10160000214802F0EDFA4B46990049441F48490031
:1016100002F0E6FA4346072B20D81D4A9B00995852
:101620001C4802F0DDFAC022C2211B4B9D52585CBF
:101630003F3AFF3A024301205A54FFF7E1FA07B05C
:10164000F0BCBB46B246A946A046F0BD13490848C7
:1016500002F0C6FA002FB2D01149B1E71149DFE715
:10166000C41C0610481C0610581C0610841C0610CA
:10167000E81C0610941C0610F41C06100C1D061025
:101680000000F43F2C1D0610441D06105C1D0610C2
:101690007C3406107C1D0610B01900208C1C06102E
:1016A000AC1C0610C0180610F0B5DE4657464E4674
:1016B00045468846E0B589B01F0015AB1B880590EC
:1016C0009B4616AB1B884C48079317AB1B880692AA
:1016D000994618AB1B78129E9A46139D149C02F0F3
:1016E0007FFA0599454802F07BFA4146444802F0EA
:1016F00077FA069B002B67D14249434802F070FA03
:10170000002F67D0012F6FD0022F69D0032F6FD029
:101710003778F37832797179029777783B48019777
:10172000B678009602F05CFA2E78EB782A7969791F
:1017300002966E7836480196AD78009502F050FA20
:101740002578E378227961790295657831480195A9
:10175000A478009402F044FA584607F0A5FA08F07D
:1017600059FD00222C4B08F02BF808F021FD2B4BE3
:101770000100180002F034FA0799294802F030FA03
:101780004B46990049442748490002F029FA53463C
:10179000072B23D8244A9B009958244802F020FAAA
:1017A0004146C022224B9952C2213F3A585CFF3A2F
:1017B000024301205A54FFF723FA09B0F0BCBB469C
:1017C000B246A946A046F0BD1A490F4802F008FAF1
:1017D000002F97D1184802F003FA99E71749DCE780
:1017E000174802F0FDF993E7164802F0F9F98FE780
:1017F000154802F0F5F98BE7981D0610481C0610F5
:10180000581C0610841C0610E81C06100C1D06103F
:10181000841E0610B81E06100000F43F2C1D061092
:10182000441D06105C1D06107C3406107C1D06103D
:10183000B01900208C1C0610C41D0610C01806101C
:101840001C1E0610F01D06104C1E061070B505007B
:101850001C480E00140002F0C3F929001A4802F0D7
:10186000BFF9052E0BD91949194802F0B9F9C2235D
:10187000184AD35C40218B438231535470BD164BC0
:10188000B200D158124802F0ABF9022E0FD1013C40
:10189000E4B20B2C09D8114BA400E158104802F017
:1018A0009FF9C2230B4AD35CE4E70849F6E7C22359
:1018B000084AD35C002EDDD15906DBD504210B4349
:1018C000D8E7C046EC1E0610581C0610C0180610BB
:1018D000101F0610B01900206434061034340610AE
:1018E000201F0610F8B507000C0016001D001E484A
:1018F00002F076F939001D4802F072F921001C4807
:1019000002F06EF931001B4802F06AF929001A480A
:1019100002F066F90C2C04D8184BE340DB0700D525
:10192000F8BDC623164AD35A01339C420ED0CA23AF
:10193000D35A01339C4210D0CE23D35A01339C4258
:10194000EED1069B1868FEF76DFEE9E7069B1B7853
:10195000012BE5D1FEF79CFFE2E7069B1B78012BEC
:10196000DED1FEF7EDFEDBE7301F0610581C061037
:10197000541F0610681F0610781F0610441500003B
:10198000B019002070B506000D0014000A4802F0DE
:1019900027F93100094802F023F92900084802F02C
:1019A0001FF92100074802F01BF9C2210820064B4D
:1019B0005A5C02435A5470BD901F0610581C061002
:1019C000B41F0610681F0610B0190020BC21014B7F
:1019D0005A507047B019002010B5034802F000F9C2
:1019E0000020FFF70DF910BDD01F061070B50500DF
:1019F0000C00084802F0F4F82900074802F0F0F85B
:101A00002100064802F0ECF80549064802F0E8F823
:101A100070BDC046EC1F0610481C0610581C06106E
:101A20000C2006103820061010B5024802F0D8F835
:101A300010BDC0465420061010B5024802F0D0F880
:101A400010BDC0468C20061010B5024802F0C8F840
:101A500010BDC046B420061010B5024802F0C0F810
:101A6000002010BDE020061010B5024802F0B8F8C2
:101A700010BDC046F8200610F0B5C64600B5804639
:101A80001C006B460F00160014481D8B02F0A8F8CE
:101A90004146134802F0A4F83900124802F0A0F8B9
:101AA000300007F001F908F0B5FB00220E4B07F0FB
:101AB00087FE08F07DFB0D4B0100180002F090F846
:101AC00021000B4802F08CF8A90049194900094887
:101AD00002F086F880BCB846F0BDC0461C21061056
:101AE000481C0610581C06100000F43F2C1D061060
:101AF000441D06105C1D061010B5024802F070F877
:101B000010BDC0464821061010B5024802F068F822
:101B100010BDC0467C21061010B5024802F060F8E6
:101B200010BDC046A421061010B5024802F058F8B6
:101B300010BDC046C821061010B5024802F050F88A
:101B400010BDC046FC21061010B5024802F048F84E
:101B500010BDC0462422061010B5024802F040F81D
:101B600010BDC0465022061010B5024802F038F8E9
:101B700010BDC0467822061010B5024802F030F8B9
:101B800010BDC0469822061010B5024802F028F891
:101B900010BDC046BC22061010B5024802F020F865
:101BA00010BDC046E822061010B5024802F018F831
:101BB00010BDC0460423061010B5024802F010F80C
:101BC00010BDC0462423061010B50C00034802F0D7
:101BD00007F82100024802F003F810BD4823061060
:101BE0007423061010B5024801F0FAFF10BDC0467C
:101BF0008823061010B5024801F0F2FF10BDC04660
:101C0000B023061010B5024801F0EAFF10BDC0462F
:101C1000D023061010B5024801F0E2FF10BDC04607
:101C2000F423061010B5024801F0DAFF10BDC046DB
:101C30001424061010B5024801F0D2FF10BDC046B2
:101C40003C24061010B5024801F0CAFF10BDC04682
:101C50006024061010B5024801F0C2FF10BDC04656
:101C60007C24061010B5024801F0BAFF10BDC04632
:101C70009C24061010B5024801F0B2FF10BDC0460A
:101C8000C024061010B5024801F0AAFF10BDC046DE
:101C9000E824061010B5024801F0A2FF10BDC046AE
:101CA0000C25061010B5024801F09AFF10BDC04681
:101CB0002C25061010B5024801F092FF10BDC04659
:101CC0004825061010B5024801F08AFF10BDC04635
:101CD0006825061010B5024801F082FF10BDC0460D
:101CE0008825061010B5024801F07AFF10BDC046E5
:101CF000A425061010B5024801F072FF10BDC046C1
:101D0000D425061010B5024801F06AFF10BDC04688
:101D1000F825061010B5024801F062FF10BDC0465C
:101D20002026061010B5024801F05AFF10BDC0462B
:101D30004426061010B5024801F052FF10BDC046FF
:101D40006C26061010B5024801F04AFF10BDC046CF
:101D50009826061010B5024801F042FF10BDC0469B
:101D6000C426061010B5024801F03AFF10BDC04667
:101D7000E426061010B5024801F032FF10BDC0463F
:101D80000C27061010B5024801F02AFF10BDC0460E
:101D90003027061010B5024801F022FF10BDC046E2
:101DA0005027061070B5144C251D2100280003F0A3
:101DB0002FFF002800D170BD0223280026002360D9
:101DC00003F006FF9C24B423413EFF3E64005B0009
:101DD000F158305906F078F9084D305102F05CF8AE
:101DE0003059291CFEF734FA0028E4D09A23002247
:101DF0005B003551F250DEE7C01B00200000C842F6
:101E000010B5154C2100201D03F002FF002815D04D
:101E1000AE23413CFF3C5B00E25C002A0FD1012273
:101E2000E254B0235B00E2580C48203BE250083BF0
:101E3000E05002F031F80A4803F0CAFE10BD00225B
:101E40000020E2540833E258243BE250083BE050C3
:101E500002F022F8EFE7C046C01B00200000C84295
:101E6000C41B0020F8B5284C251D2100280003F0D4
:101E7000CFFE002800D1F8BD0223280026002360F1
:101E800003F0A6FE03F084FDAC23413EFF3E5B0061
:101E90000700F05808F0BEF91C4A1D4B07F090FCF3
:101EA00000221C4B07F08CFC00221B4B07F002FAAF
:101EB000040038000D0006F0F7FE08F0ABF9020050
:101EC0000B002000290007F07BFCAA235B00040024
:101ED000F0580D0008F09EF902000B0020002900C8
:101EE00006F020FF08F0D8F909F078FD011CFE206B
:101EF000800506F0E1FC094906F0E6FB9C235B0047
:101F0000F05001F0C9FFB6E7C01B0020182D445463
:101F1000FB2119400000344000408F40000048423F
:101F200010B5074C0023220082B000931C2123002F
:101F30005032082002F0B0F9043C206002B010BD1D
:101F4000841A0020F0B589B001AC07000E0015001E
:101F500000211822200008F09FFB0122054B2100E0
:101F600018685242002302972672079502F0FAF988
:101F700009B0F0BD801A0020F0B589B001AC0700AF
:101F80000E00151C00211C22200008F085FB0123F7
:101F900001222370054B210018685242002302974A
:101FA0002672049502F0DEF909B0F0BD801A002017
:101FB000F0B5C64600B588B080460F001600002177
:101FC0001C2268461D006C4608F066FB0223237045
:101FD000434601220193074B694618685242002389
:101FE00027720496059502F0BDF908B080BCB8468A
:101FF000F0BDC046801A0020F8B54746CE4680B5F1
:10200000AC27A6235F4E7F00F0515B00F35C0C0011
:10201000002B69D13933FF33F058984608F0FAF8AD
:10202000A022594B120609F037FD08F035F908F0E7
:10203000F1F8A022554B120609F010FD08F02CF91A
:102040004346F05003F0A4FC8146F05908F0E2F852
:102050004F4A504B07F0B4FB00224F4B07F0B0FB48
:1020600000224E4B07F026F9040048460D0006F00A
:102070001BFE08F0CFF802000B002000290007F03B
:102080009FFB80231B06CD18434604004449F058AB
:1020900006F096F9FE21890506F00EFC09F054FCC5
:1020A00008F0B8F802000B002000290007F0AEFD90
:1020B000374A3C4B06F036FE08F0EEF8011C041CD3
:1020C00006F07CFD00285BD165006D083649281CB0
:1020D00006F074FD002848D13349281CFEF7A4F807
:1020E000002842D1314C40E003F052FC142105009D
:1020F0002000FEF735F806F0D7FD9C235B00F15871
:1021000006F0E2FA294906F05BF9041C280006F003
:10211000CBFD011C201C05F0D7FF08F07BF8040064
:10212000F0590D0008F076F8194A1A4B07F048FBF1
:102130000022194B07F044FB0022184B07F0BAF8B5
:1021400002000B002000290007F03AFB8023C02288
:102150001B06C918D205134B07F058FD0C4A114B4A
:1021600006F0E0FD08F098F8041CAA239A225B0010
:10217000F4500F4B5200B350C0BCB946B046F8BD46
:102180000024F2E7801A002099F958409999B93F44
:10219000182D4454FB2119400000344000408F406A
:1021A00000004842FB210940FFFF7F7F0000C8423A
:1021B000651E0410F0B54546DE4657464E46674B51
:1021C000E0B59B46664BA6269A46A02389B05B00E5
:1021D00000226D469846634C760055E068682F7A79
:1021E000002800D18EE006F05FFD5F4906F0E8F8B8
:1021F000011C5E4806F0E4F8A8235B00E050143BA5
:102200009946E35C2000FA1A511E8A41591E8B41FF
:102210001340A355424600234530FF30A35003F03E
:10222000D7FCA35D002B0CD14B46E35CBB4208D02E
:102230009C2300205B00E05001F02EFE380001F0EE
:102240006FFD9E235B00E7542B78012B78D0022B87
:102250005AD0002B1ED1A86900287DD006F024FD9D
:10226000414906F0ADF8011C404806F0A9F8B42336
:102270005B00E0505B469A225200A350A25D002A08
:1022800012D198474346E2582900206802F0B4FA78
:102290000128A3D09A2301225B00E3585242002B6D
:1022A000F2D0A25D002AECD0270021004537413151
:1022B000FF373800FF3103F0ABFC0028E2D0424684
:1022C00002233800A3509C2703F082FCA8237F0040
:1022D0005B00E158E05906F0EFFAE05101F0DCFD57
:1022E0000023E059191C9946FDF79EFF0028C9D02C
:1022F0004B46E3510023A3553D33FF33E05C01F02F
:102300000FFDBFE7194877E714212869FDF728FF7B
:10231000B0236F695B00E05014213800FDF720FF07
:10232000B2235B00E0504346E05020004530FF30D0
:1023300003F04EFCAE2300225B00E25453469AE7C2
:102340006968E868FFF758FE9A2301225B00E358AA
:102350005242002BA5D197E7044888E7A51D041039
:10236000011E0410801A0020000020420000C84214
:1023700010B5034A0349044801F07CFC002010BD5D
:10238000BC2D0610C82D0610D02D0610F8B5094C2E
:10239000094E2700094D84372168300001F06AFC9E
:1023A000A16828000C3401F065FCBC42F4D1002087
:1023B000F8BDC04634390610DC2D0610E01A0610B0
:1023C00010B501282CD0022825D14C681A482100CC
:1023D00008F06AF900281AD02100184808F064F9BA
:1023E000002814D02100164808F05EF9002805D016
:1023F0002100144808F058F9002817D10020FEF7F2
:102400007FF91149114801F035FC002010BD012071
:10241000FEF776F9F5E70E4801F02CFC0120F5E710
:10242000FEF768F90028ECD10A49EBE70A4801F009
:1024300021FC0120EAE7C046002E0610082E0610F7
:102440000C2E0610CC2D0610EC2D06106C2E06104E
:10245000442E0610F42D0610142E061000B583B07D
:1024600001281AD0022812D1124B486801AA19007B
:1024700008F08CF8002815D00198FEF713F9002811
:1024800014DB01990C4801F0F5FB002003E00B4838
:1024900001F0F0FB012003B000BDFEF7FDF80100E4
:1024A0000190EFE7064801F0E5FBF3E7054801F08E
:1024B000E1FBEFE77C2E0610C42E0610442E06101A
:1024C000802E0610A42E061070B501F02BFD07F02B
:1024D000A1FE0E4A0E4B06F025FC07F0DDFE051CA2
:1024E00006F080FB040006F0DFFB011C281C06F050
:1024F000E3F9084906F0E8F805F032FD064B020062
:102500002100180001F0B6FB002070BD9A9999993E
:102510009999A93F00002041D02E061030B50C003B
:1025200083B0012858D0022851D14D682E212800AF
:1025300008F0E4F8002805D04378002B02D00023EF
:102540008370656800236A46009301932800274939
:1025500001AB08F01BF80138012833D8019806F0C8
:10256000A3FB234905F02CFF041C009806F09CFBFC
:10257000011C201C05F0A8FD041CFEF753F80028E0
:102580002ED1201C07F046FE1A4A1B4B06F0CAFB50
:1025900007F082FE051C06F025FB040006F084FB14
:1025A000011C281C06F088F9114906F08DF805F089
:1025B000D7FC124B02002100180001F05BFB002049
:1025C00003B030BD0E4801F055FB0120F8E70D487F
:1025D00001F050FB0120F3E7FEF71EF8041CD0E7E2
:1025E000094801F047FB0120EAE7C046E82E061043
:1025F000000020419A9999999999A93F482F06106E
:10260000F02E0610442E0610102F0610F0B5CE4600
:10261000474680B59BB005A8FEF74CFB061E36DD8D
:102620001D4801F027FB1D4BF50099461C4BAD1BC7
:1026300005AC98461B4F1C4E65190AE0012B02D1D0
:10264000404601F017FB3000073401F013FBAC42A9
:1026500017D0607823796279A1790290A0780190EF
:10266000E0780090380001F005FB2378002BE5D1DD
:10267000484601F0FFFA0734300001F0FBFAAC42A3
:10268000E7D100201BB0C0BCB946B046F0BD07483A
:1026900001F0F0FAF5E7C0467C2F0610B82F0610BF
:1026A000C02F0610982F06102C1A0610682F06103F
:1026B00010B5FEF757FE054801F0DCFA142003F0D0
:1026C000A9F801F0C1FA002010BDC046C82F0610BD
:1026D00010B5FDF789FFFEF745FE054801F0CAFA7F
:1026E000142003F097F801F0AFFA002010BDC046A7
:1026F000E42F0610012370B5012801D0180070BD29
:10270000FDF7F8FF00282BD11649174801F0B2FA5F
:10271000FDF7C2FF154B0100180001F0ABFAFDF701
:102720007BFF07F077FD124A124B06F0FBFA07F029
:10273000B3FD051C06F056FA040006F0B5FA011CBC
:10274000281C06F0B9F80C4905F0BEFF05F008FC9E
:102750000A4B02002100180001F08CFA0023CDE79B
:102760000749D2E7F42D06106C2E0610C42E061071
:102770009A9999999999A93F00002041482F0610EC
:10278000EC2D06107047C046F0B54E46DE46574663
:102790004546E0B5C3B032AB9946DD4B37000893F0
:1027A0002CAB9846DB4B0393DB4B0C93DB4B0A9330
:1027B000DB4B0D93DB4B0493DB4B0B93DB4B019318
:1027C000DB4B0E93DB4B0F93DB4B0693DB4B0793FB
:1027D000DB4B1093DB4B0293DB4B1193DB4B1D93D5
:1027E000DB4B0993DB4B1293DB4B1393DB4B1493C3
:1027F000DB4B1593DB4B1693DB4B1793DB4B18939B
:10280000DB4B1993DB4B1A93DB4B1B93DB4B1C937A
:10281000DB4B1F93DB4B1E93DB4B2093DB4B229355
:10282000DB4B2393DB4B2493DB4B2593DB4B269332
:10283000DB4B2793DB4B2893DB4B2993DB4B2A9312
:10284000DB4B2B93DB4B219300239B464B465A4695
:1028500008981A7001F00EFA002300259A46002607
:102860000DE0D54A934200D11CE1D44A934200D1F5
:102870001EE108235E460137BB427641F6B20120D5
:10288000404201F029FA0400002E00D1E5E1434660
:10289000DC551B68CA4A9342E3D1002DE9D0039866
:1028A000013D01F0E7F90120404201F015FA3E0038
:1028B00004002300083BDBB2132B03D8019A9B00D2
:1028C000D3589F4653463F2B00D87BE1012040421E
:1028D00001F002FA0400ECE72CAB07220021581C9F
:1028E00007F0DAFE01201B2342464042137001F03C
:1028F000F3F901270400CAE7099801F0BBF9370092
:102900004B4656465A469B191A70002E9EDD4B4682
:10291000202148469A552E9307F0E2FE002800D168
:1029200074E15B462021037001302F9007F0D8FE40
:10293000002800D177E15B46202103700130309000
:1029400007F0CEFE002800D16FE15B46042403703F
:10295000013031904846149907F0A6FE002800D1B6
:102960005CE14846159907F09FFE002800D160E120
:102970004846169907F098FE002800D15BE14846CA
:10298000179907F091FE002800D156E148461899A2
:1029900007F08AFE002800D151E14846199907F056
:1029A00083FE002800D14EE148461A9907F07CFECC
:1029B000002800D145E148461B9907F075FE002824
:1029C00000D144E148461C9907F06EFE002800D172
:1029D0003BE148461F9907F067FE002800D13AE125
:1029E00048461E9907F060FE002800D131E14946B3
:1029F000209801F03FF929E75346002B00D165E705
:102A0000109F05963C00843726684946300007F041
:102A100089FE002803D03100029801F02BF90C3414
:102A2000BC42F1D149461198059E01F023F9554564
:102A300000D14BE753461D98591B01F01BF945E7A0
:102A4000069801F017F94946079801F013F93DE798
:102A5000002D00D13AE76B1E52461C00571E05930D
:102A60004C44BB4205D229002000521B494407F0C8
:102A700001FE4B465A46DB191A700E9801F0FAF81F
:102A80000F9801F0F7F82100049801F0F3F80B9883
:102A900001F0F0F80120404201F01EF9BA460400AE
:102AA000059D06E7554500D3E3E60C980135F8E6A9
:102AB00043461B79002B00D0DBE6554500D3D8E612
:102AC0005346681C5E1E864207D95246A91C023A2C
:102AD000521B4944484407F0CDFD4B465A469B19CA
:102AE0001A700A9801F0C6F80D9801F0C3F84B4629
:102AF0000498591901F0BEF80B9801F0BBF80120B9
:102B0000404201F0E9F8B24604003E00D1E6C0467A
:102B100014300610283006102C30061038300610FD
:102B200044300610483006104C300610D0380610DD
:102B300058300610643006106C30061074300610E1
:102B4000343906108830061090300610A830061070
:102B50002C1A0610B0300610B4300610C030061023
:102B6000C8300610D0300610D8300610DC30061001
:102B7000E0300610E8300610F0300610F83006108D
:102B8000083106101031061014310610712304109C
:102B90008D230410C12304105D240410C9240410E3
:102BA0001D250410F52604100D260410B12604106E
:102BB000D1260410F12E04101B5B43001B5B337EF7
:102BC0001B5B4400554532D25A1B4B466F1C5919AA
:102BD000D81907F04FFD012294462B004A46E244E3
:102BE0004B4452441C70059313005A460A981A70BD
:102BF00001F040F80599049801F03CF8129801F0B2
:102C000039F813983D0001F035F85FE6484614990D
:102C1000012407F049FD002800D0A2E6229B2000F5
:102C20002EA9984712E6022494E6032492E66F1C2C
:102C3000D1E7239BF3E7249BF1E7259BEFE7269B56
:102C4000EDE7289BEBE7279BE9E72A9BE7E7299B32
:102C5000E5E7219BE3E72B9BE1E73E0029E6C04641
:102C600070B5037B04000D00002B0AD061682C486E
:102C700001F000F8237B042B4ED82A4A9B00D3583E
:102C80009F46294800F0F6FFF0E7284800F0F2FFE1
:102C90002169274800F0EEFF218D264800F0EAFF69
:102CA000002D36D0A06905F0FFFF234905F00CFD8B
:102CB000041C280005F0F8FF011C201C05F080FB17
:102CC000051C05F08FFF040005F0AAFF011C281C5D
:102CD00005F0F2FD194905F0F7FC05F083FF02004D
:102CE000174B2100180000F0C5FF164800F0C2FF86
:102CF00070BD154800F0BEFFCAE7144800F0BAFFE7
:102D0000C6E7134800F0B6FFC2E7124800F0B2FF72
:102D1000BEE700220024E3E70F4800F0ABFFB7E76F
:102D20004831061020390610403106108031061057
:102D3000B0310610B83106100000C8420000204132
:102D4000C4310610D03106109031061060310610E3
:102D50007031061050310610A0310610F0B5CBB01E
:102D600008AC02F01BFE0621200001AA03F08CF83B
:102D700002AD061E2ED0029401281ED013AB6B604C
:102D8000022841D01EAAAA60032809D029AAEA6015
:102D9000042805D034AA2A61052801D03FAA6A6117
:102DA000A169626C701E914235D36968AB688C6909
:102DB0009A69944221D3022832D14C4800F05AFF3C
:102DC0000024019901CD0134FFF74AFFA642F8D84B
:102DD0004BB0F0BD02996A6888699469844256D8FC
:102DE000AB689F69A74219D96B60AA60B84215D237
:102DF0000120404269600293DDE7A96002996B609F
:102E00008C69A242D7D9F5E7A169626C9142D4D20C
:102E100002936C60D1E702936C60C6E701204042E8
:102E2000AB68E9689C698A6994424ED30328C4D090
:102E3000EB6829699C698A6994422DD30428BCD027
:102E40002A69696990698B698342B6D9E8686A61C1
:102E500082692961934202D91A002861E960A96850
:102E6000E8688B69934202D21300E960A860696840
:102E7000A8688A69934202D91A00A9606860029B17
:102E800069689869824298D96B60029195E7012040
:102E900002926960404288E7AC682B61A369E960EF
:102EA0009A4202D91300EC60A9606968AC688A692B
:102EB000934202D91A00A9606C60029B69689C6900
:102EC000A242BBD96B600291B8E76C68EB60A36962
:102ED000A9609A4202D91300AC606960029A6968DD
:102EE0009469A342A2D96A6002919FE7DC3106107F
:102EF00070B50E4800F0BEFE0D4E0E4D0E4C30006B
:102F000000F0B8FEFFF72AFF280000F0B3FE200013
:102F100000F0B0FEFA20800000F0DEFE0328EED1C3
:102F2000064800F0A7FE002070BDC0461C32061007
:102F30002432061030320610483206102C1A0610C1
:102F400010B507F005FC0C2303600120404210BDC2
:102F500030B50400080085B02060200011001A0080
:102F6000184B1C301C6001F0FBF8099A0899201DD1
:102F700001F0F6F8032523000022002138330095E4
:102F8000012001F089F923000022606300218C33C5
:102F90000095012001F080F988230021E050606B4A
:102FA00001F090FD0121082004F068F8064B03A809
:102FB0001A8802809B78837004F052FC002005B0D0
:102FC00030BDC046EC1B00201C18061030B585B083
:102FD00008AC25780191072A45D011D8052A46D09A
:102FE0000121062A08D101AC21716171012B0FD09A
:102FF000022B3AD0002B0CD00120404205B030BD4E
:103000000321082AF8D101AC21716171012BEFD1A4
:103010000223E371002D01D0012DEDD1436AA5718A
:103020005A1E9341C2685B002372002A02D001221B
:10303000134323720023002063720133A37204F050
:103040009FF8200004F0AAF8062004F09DF9002063
:1030500004F08EF90121102004F04CF9012004F055
:103060008FF80020CAE70221BDE70123D1E7002144
:10307000B9E7C046F0B5C64604000E0017000020B0
:1030800000B5002A02D180BCB846F0BD81200021E5
:10309000400104F02FF90021606B01F013FD812045
:1030A000400104F05FF90EE0002D28D0E36A226AA7
:1030B00018780133E362934201D3E369E362013D8F
:1030C000256304F023F9202004F030F9256B002853
:1030D000EAD000239846002D11D0200031003A009C
:1030E0001C3001F047F8236B05000121002B18D19B
:1030F0008020400104F0FEF828004044C3E700258A
:1031000005E0BD4211D0705D04F000F901352020CA
:1031100004F00CF9A84673190028F2D01E007F1B9A
:10312000DBE7202004F0E6F8E6E700271E00D4E7FE
:1031300070B505004B1C0BD0322200230800002183
:1031400004F0ECFEFA2200239200FDF78BF8010058
:10315000686B01F0B7FC0400012802D000242000B5
:1031600070BD03F085F8082004F0E0F8002803D0D3
:10317000002403F089F8F2E7002300220021686BA5
:1031800001F0F0F8F5E7C046F8B504000F001600AE
:103190000020002A00D1F8BD0021103004F0AAF868
:1031A00032003900201D01F011F80500864206D8D2
:1031B00022E004F0B3F878550135AE421CD9102056
:1031C00004F0B4F80028F4D0102004F0AFF8A3699C
:1031D000002817D1E2689A4214D004F09FF82369BE
:1031E00018702369A26801332361934201D3636895
:1031F0002361A3690133A361102004F097F8A36948
:103200000028E7D0002B05D01020012104F072F82F
:103210002800C0E788330021E05801F053FCF3E7B1
:1032200070B505000C004B1C0BD0322200230800A7
:10323000002104F073FEFA2200239200FDF712F839
:1032400004008826002004F09FF82100A85901F00E
:1032500039FC012804D0062004F096F8A86970BD56
:10326000002300220021A85901F07CF8F3E7C046B2
:103270003E4B10B51C68002382B02020019304F05F
:1032800067F8012813D08020400104F061F801287C
:1032900058D0102004F05CF8012831D0019B002B9D
:1032A00003D08022324B52051A6002B010BD314B60
:1032B0001B8F9B06E7D51F3004F054F80EE0002A60
:1032C00014D0E36A216A18780133E3628B4201D398
:1032D000E369E362013A226304F018F8202004F065
:1032E00025F8226B0028EAD0002ACCD1002120202A
:1032F00004F000F880200121400103F0FBFFC2E749
:103300001C4B1B8FDB06C9D50F3004F02BF80EE0E9
:1033100004F004F8236918702369A268013323615B
:10332000934201D363682361A3690133A361102031
:1033300003F0FCFF0028EBD0882301A9E05801F03E
:103340000FFAABE780220B4B52011B8F1342A0D028
:10335000100004F007F880200021400103F0CAFFAC
:10336000606B01A901F0FCF993E7C046EC1B00205B
:1033700004ED00E0000030400D4B70B505000C007E
:1033800099420CD00B4B99420FD180200121400172
:1033900003F074FE002300202C606B6070BD802061
:1033A0000121000103F06AFEF4E701204042F5E745
:1033B0000000D0400000E04070B504001A480D0045
:1033C000002682B00902814208D8FCF7C9FE80239A
:1033D0005B00984225D845430138C6B229001248FF
:1033E000FCF7BEFE6060684604F024F880236D465A
:1033F0005B002B800023AB70AB8063686946013BA8
:103400002068EB80EE7003F0CDFF012220680021E0
:1034100004F022F82068012104F012F8002002B024
:1034200070BD1800D7E7C0460048E80170B50C1C15
:1034300006000021201CFCF7EDFE00281CD10F49DE
:10344000201CFCF7FBFE002800D00C4C75682800FF
:1034500005F02AFC211C05F037F906F0DBFE0022FE
:10346000074B05F027FF04F093FD33682D1AADB22A
:1034700082B29A801D8170BD0024E7E70000C84237
:1034800000005940002203681A807047002310B5DD
:103490000160037180204000012103F0EFFD002056
:1034A00010BDC04600B583B00023017168460370AB
:1034B0000133FF334380FE3B4170037103F0E2FFB1
:1034C000012004F05DF8012004F046F8002003B06C
:1034D00000BDC04670B505000424012004F01EF8AC
:1034E000042004F05BF80028FAD0013C04F09AF9BB
:1034F000002CF2D12879022104F058F870BDC046A2
:1035000010B507F03AF910BD10B507F0C5F810BDB9
:1035100010B507F0A1F810BD084B1A68084B9A4285
:103520000AD13F23074A40061381000C2E3B9061CD
:103530001380138ADB07FCD57047C04614000020B7
:10354000CCBCECFC00001040084B1A68084B9A42B7
:103550000AD13F23074A800813810C3B9061116414
:103560001380138ADB07FCD57047C0461400002087
:10357000CCBCECFC00001040034B1B8A1840431EDF
:103580009841C0B27047C04600001040C02380215F
:103590001B061A680A431A601A688A431A60704741
:1035A000C02301211B061A680A431A601A688A435D
:1035B0001A607047C0231B0618688007C00F704749
:1035C000054B1B78002B05D1044B1868431E98410E
:1035D000C0B270470120FCE7F01B0020000400C0CF
:1035E000F0B5534B91B01C006A46E0CCE0C2E0CC91
:1035F000E0C260CC60C22033E0CBE0C270CB70C2CE
:1036000030CB30C2012857D002281CD0032850D11B
:103610006A4620234C1E551E03E0013B002B00D1BF
:103620007CE0E05CEA5C861A9042F6D0414B1A7866
:10363000002E00DB74E0022082433F481A700C1D0C
:1036400002003E4B50E06A4620234C1E551E02E00D
:10365000013B002B5CD0E05CEA5C861A9042F7D01C
:10366000344B1A78002E55DA012082431A700C1D53
:103670004B0759D1324BCB18002B55D00C684D68F5
:10368000304B1C605D60304B8C68CD681C605D60A9
:103690002E4B0C694D691C605D602D4B8869C969B2
:1036A000186059602B4B2FE0224B1A7804210A43F3
:1036B0001A70012011B0F0BD1F2520234C1E6D444F
:1036C00002E0013B002BEFD0E05CEA5C861A9042FE
:1036D000F7D0184B1A78002EE8DA042082431E48EF
:1036E0001A7002001D4B0C1D0D68056020685060AB
:1036F00088689060C868D060086910614869506146
:1037000088699061C969D161002200201A60D1E7FF
:10371000084B1A7801210A431A70CAE7054B1A7838
:1037200002210A431A70C4E706480A4B0200DBE78D
:1037300020180610F01B0020B40400C0D40400C000
:1037400074FBFF3F900400C0980400C0A00400C0B8
:10375000A80400C0B00400C06C0400C08C0400C009
:10376000431E10B5022B1DD8C200164B1218920032
:10377000D318880718D114481018081A022813D92A
:103780001A680A605A684A609A688A60DA68CA6089
:103790001A690A615A694A619A698A61DB69CB616F
:1037A000002010BD0120FCE70800521A2030054C13
:1037B0008B18A44663441B780B7001318842F6D104
:1037C000EEE7C046480400C0490400C010B514F03C
:1037D000F1FA10BD10B511F021F810BD10B510F0C0
:1037E000D5FB10BD10B510F0DBFE10BD70B584B078
:1037F0006E466C466D46B68D248CAD8C03960A9E43
:1038000001950296009411F0FBF804B070BDC0461B
:1038100070B584B008AC20CC0AAE24783678019418
:103820000296009511F02CF804B070BD10B50AF0A6
:103830001FF910BD10B512F0BDFB10BD012070477F
:1038400010B509F0F3FE10BD10B514F029FD10BD40
:1038500010B512F073FA10BD10B515F0EBFD10BDE8
:1038600010B50AF0DBF810BD10B50AF0DFF810BD96
:1038700010B50EF09FF910BD10B517F013FE10BD76
:1038800010B517F033FB10BD10B517F093FE10BD47
:1038900010B517F052FB10BD10B510F069F810BD4F
:1038A00010B510F075F810BD10B510F07DF810BD12
:1038B00010B511F0FDF910BD10B50DF051FF10BDA0
:1038C00010B511F035FC10BD10B511F041FA10BD66
:1038D00010B511F06FFB10BD0120704710B50CF052
:1038E000EBFF10BD10B519F025FF10BD10B519F094
:1038F000F5FE10BD10B519F0D9FE10BD10B51AF0C7
:10390000B3F810BD0120704710B51AF033F910BD9F
:1039100010B51AF0F5F810BD10B518F003FB10BD86
:1039200010B518F019FB10BD10B518F093FB10BDC1
:1039300010B518F089FA10BD10B518F09DFA10BD39
:1039400010B518F0BBFA10BD10B518F01BFB10BD78
:1039500010B518F031FB10BD10B517F023FB10BDEA
:1039600010B517F0F3FA10BD10B517F0E3FE10BD57
:1039700010B517F0DBFD10BD70B504000DF080F937
:10398000050002F081F901281CD072B602F07CF922
:10399000002812D01A4B19781A4B1A78022808D02E
:1039A000022002F0F3FC184B1B78002B1CD162B6EE
:1039B00070BD013002F0EAFCF9E762B603300DF0A9
:1039C00083F9F5E702300DF07FF96001001B8000FC
:1039D00000193221C000FCF7C3FB010003200DF0E9
:1039E00058F90DF003FAD0E70DF04AF929000DF06F
:1039F00041F91421FCF7B4FB01F0D6FFD7E7C0462C
:103A0000F21B0020F11B00200C000020024B18705C
:103A1000024B19707047C046F21B0020F11B0020BA
:103A2000F0B5C64600B58AB004F07AF9604C0120C2
:103A3000210000F0F5FD5F4B0121E6185E4B0027E9
:103A4000F050012003F01AFB04A803F0B7FA80231A
:103A500004936B4604A81F7503F0CCF980235B0127
:103A600004936B4604A81F7503F0C4F94023062590
:103A700004936B4640201D7503F0B2FA04A803F0CE
:103A8000B9F980206B46C0011D75049003F0A8FAB7
:103A900004A803F0AFF92023984604936B46202036
:103AA0001D7503F09DFA04A803F0A4F90F230493F5
:103AB0006B460F201D7503F093FA04A803F09AF9E2
:103AC000102304936B4610201D7503F089FA04A897
:103AD00003F090F980231B0104936B46053D04A875
:103AE0001D7503F087F980235B0004936B4604A8DF
:103AF0001D7503F07FF9314B03A81A880135028048
:103B00009B78837003F0ACFE8022002306A8069207
:103B10000793089503F070FA80220023520106A84B
:103B200006920793089503F067FA8420400103F09A
:103B300099FA84200121400103F088FA414601915D
:103B4000210080231E4A2439A218009130001D490B
:103B5000DB00FFF7FDF92500E121002308225035A5
:103B6000300000974902FFF731FA28001649FFF7A5
:103B700003FC64212800FFF71FFC81216034200032
:103B8000C905FFF783FC02212000FFF78BFC012110
:103B9000802003F073FA0D4803F050FE03F054FE4A
:103BA00008210820FFF732FF0AB080BCB846F0BDFC
:103BB0009029002000FBFFFFFC04000060180610A5
:103BC000DCFBFFFF000030400000D040FD7F07001D
:103BD000014B024A98547047902400206905000068
:103BE0000FB4F0B5144B154D0024EB5C83B0002BE3
:103BF00005D1200003B0F0BC08BC04B01847012177
:103C00000F4E09AFA8594942019700F05BFF802190
:103C10000C4C3B00089A2000490006F011FD2100E1
:103C200002002800FFF726FA0023040000220021EA
:103C3000A85900F097FBDCE76905000090240020FC
:103C4000FC040000F41B002010B50748FFF7C8FF74
:103C5000012001F0DFFDBFF34F8F044B044ADA600F
:103C6000BFF34F8FFEE7C046FC33061000ED00E0C7
:103C70000400FA050FB4F0B5C646012100B582B0C4
:103C8000124C08AE124F08CEE059494298460196B0
:103C900000F018FF80210F4D3300424628004900F4
:103CA00006F0CEFC290002002000FFF7E3F9050032
:103CB000002300220021E05900F054FB280002B04C
:103CC00080BCB846F0BC08BC04B018479024002063
:103CD000FC040000F41B002070B582B06B46DD1DB3
:103CE00000230D4C010020002B70FFF799FA0121F1
:103CF0000A4E4942A05900F0E5FE290001222000A9
:103D0000FFF742FA002300220021A05900F02AFB0D
:103D1000287802B070BDC04690240020FC0400004A
:103D2000F0B5C646AB2600B5504CF60082B0A75D94
:103D30000500A0550F2003F053F94D4B4D49E358B2
:103D4000181C984604F0B8FD06F064FA4A4A4B4B3A
:103D500005F036FD06F0A0FA07F016FE06F05AFA56
:103D6000474A484B05F02CFD0022474B05F028FD43
:103D7000464B474A05F04AFF06F08EFAA35D011C48
:103D8000082B03D03B4804F097FD011CAA23DB005D
:103D9000E018FFF74BFB4246354BE250043BE35C37
:103DA000BB4204D0AA23DB00E018FFF76BFB082D11
:103DB00058D8384BAD005B599F46012003F00CF9F1
:103DC000042003F009F9022003F006F9002F0FD1B7
:103DD000684603F0F3F810236A4600930B3B6846ED
:103DE000137103F007F8202003F0EEF800280CD040
:103DF00002B080BCB846F0BD012003F0EDF804200D
:103E000003F0EAF8002FE3D0F2E70121202003F0CD
:103E1000EBF8052001F0FEFCEAE7082003F0DCF8EF
:103E2000002FD5D0E4E70021202003F0DDF868461C
:103E300003F0C4F810236A4600930A3B68461371E6
:103E400002F0D8FFD4E7012003F0C6F8002FBFD05E
:103E5000CEE7012003F0C0F8022003F0BDF8002FE8
:103E6000B6D0C5E7002FC3D1B2E7C04690240020EA
:103E70005C0500000000C8429A9999999999A93F58
:103E8000D2847F2DC91BF03F000059402BB5E53F80
:103E9000E1C39F8BB839061070B51849041C04F0B3
:103EA0000BFD06F0B7F9164A164B05F089FC06F033
:103EB000F3F907F069FD06F0ADF9134A134B05F06D
:103EC0007FFC0022124B05F07BFC124B124A05F0DE
:103ED0009DFE06F0E1F9AB23104DDB00EB5C011C0D
:103EE000082B03D0054804F0E7FC011CAA23DB00E3
:103EF000E818FFF79BFA0A4BEC5070BD0000C8426F
:103F00009A9999999999A93FD2847F2DC91BF03F1D
:103F1000000059402BB5E53FE1C39F8B9024002062
:103F20005C05000070B5202003F04EF8002826D074
:103F30001B4C02212000FFF7B5FA2000FFF7CAFA58
:103F4000184B051C9C46AB236444DB00E35C002B50
:103F500010D0202003F038F8002818D0281C12496F
:103F600004F0B2FB114904F02BFA011C0E4804F0D6
:103F7000A3FC70BD0021202003F036F8EEE70121FC
:103F8000203003F031F8052001F044FCD0E7012196
:103F9000203003F029F8052001F03CFCDEE7C046A4
:103FA000F0290020A0FAFFFF0000C842333353403D
:103FB00010B582B06A46084B03CB03C2402003F021
:103FC0000FF8684602F016FFAD220121034BD20024
:103FD000995402B010BDC046641806109024002009
:103FE000402310B582B06A4600240093002368463F
:103FF0009380947102F0FEFEAD22024BD2009C54DD
:1040000002B010BD90240020AD22024BD200985C7B
:104010007047C0469024002010B582B06A460E4B0F
:104020006C4603CB03C2684602F0E4FE402002F077
:10403000D3FF072001F0EEFB402002F0D1FFAD22BC
:10404000064BD2009B5C002B01D002B010BD68462D
:10405000237102F0CFFEF8E76418061090240020C8
:10406000802010B5400102F0AFFF013843425841B3
:10407000C0B210BD8022012300B585B0520102906C
:1040800068460092019302F0B7FF05B000BDC0463C
:1040900000B5802085B002F0E9FF012807D080201C
:1040A000400102F0E3FF012815D005B000BD7F30CC
:1040B00002F0D8FF69460020FCF788FD009B002B2A
:1040C000EDD080228020144B52051A60400102F08E
:1040D000CDFF0128E9D18020400102F075FF802248
:1040E00001235201013800920193431E984102902E
:1040F000684602F081FF8020400102F0B3FF69466C
:104100000120FCF763FD009B002BCED08022024BE8
:1041100052051A60C9E7C04604ED00E010B50E482C
:1041200003F08CFB01F034FC952801D8012010BD70
:104130000A4C00212000FEF7FBFF0028F6D080206B
:10414000400102F041FF0128F0D0AB23DB00E35C2B
:10415000002BEBD10320EAE7FD7F0700902400202D
:10416000002382608A1801604260C160016143617E
:104170007047C046F0B5C6468568436904000E0026
:1041800000B5ED1A954200D91500E06867683F1A3E
:10419000BD420DD22A00310006F0EFFAE268521952
:1041A000636928005B19E260636180BCB846F0BDBA
:1041B0003A00310006F0E1FAEB1B98461A0020683D
:1041C000F11906F0DAFA22684244E9E7F0B5C6468A
:1041D000456904000E0000B5954200D9150021691B
:1041E00067687F1ABD420DD22A00300006F0C5FA7A
:1041F00022695219636928005B1B2261636180BCDC
:10420000B846F0BD3A00300006F0B7FAEB1B98460E
:104210001A002168F01906F0B0FA22684244E9E772
:1042200070B51600026C0400856B002A06D1066882
:1042300001350020002E25D0A56370BD002E0ED1C3
:10424000406806F09AFA6368226C01359B18A268F0
:104250006360934201D3236863600020ECE7C06889
:1042600006F08BFA226CE36851429B1A2268E360E5
:10427000934202D2A3685B18E360022E07D00020AD
:104280000135D9E7A06801F071FDA660D4E7002DE3
:10429000F5D00020D0E7C04670B582B01C006B4658
:1042A0001D7E002C0ED000280AD0002A0CD0002938
:1042B00006D050230193019B502B3CD072B6FEE7F1
:1042C00072B6FEE772B6FEE70029F9D150230193DA
:1042D000019B502BF2D12200019B46230126E6547C
:1042E0002260E0632164020C0B0C002A35D1002B04
:1042F00023D101F0BDFF216CE36B22684B43D01842
:10430000A06000205B1A6260D218E260FF234422A2
:10431000A0632000A3540132A354103001F0F8FE32
:104320002000243001F0F4FE01F0AEFF4C23200009
:10433000E55402B070BD019BCFE784461A1C89B2D8
:104340000B00614680B2434389B292B24A431B0CD0
:10435000D3181B0CCDD072B6FEE7002BFBD18C46D8
:10436000EDE7C046F0B5CE46474680B585B0041EA1
:1043700088469946019200D102E1002900D19DE0D2
:104380004B46022B00D19FE001F072FFA26BE36B62
:104390009A427FD34A460023022A7BD02600243645
:1043A000019A002A00D1F5E0002B00D1E4E001F0F1
:1043B0006BFF01F0D7FA01F05BFF4422A35C5BB214
:1043C000013301D10023A3544522A35C5BB2013326
:1043D00001D10023A35401F057FF01A902A801F065
:1043E00017FC002800D0D9E001F042FFA26BE36B7C
:1043F0009A4200D16EE001F047FF01F039FF4523FA
:10440000E55C6DB2002D05DC13E0013DEBB26DB251
:10441000002B0ED0636A002B0BD0300001F064FB40
:104420000028F2D0013D01F029FCEBB26DB2002B67
:10443000F0D14523FF22E25401F026FF01F018FFDE
:104440004423E55C6DB2002D16DD2700103704E033
:10445000013DEBB26DB2002B0ED02369002B0BD0C7
:10446000380001F041FB0028F2D0013D01F006FCCC
:10447000EBB26DB2002BF0D14423FF22E25401F0E5
:1044800003FF01F077FA01F0F3FEA16BE26B012369
:10449000914285D24A4641462000FFF7C1FE636A39
:1044A000002B00D071E0002800D06BE001F0ECFEA2
:1044B000012005B0C0BCB946B046F0BD036C002B6E
:1044C00000D15DE772B6FEE7E36B012B00D15BE73D
:1044D00072B6FEE72700103701F0D6FE38000199CA
:1044E00001F0B2FA01F0C4FE4523E55C6DB2002D87
:1044F00005DC13E0013DEAB26DB2002A0ED0636A1A
:10450000002B0BD0300001F0EFFA0028F2D0013D73
:1045100001F0B4FBEAB26DB2002AF0D14523FF22CC
:10452000E25401F0B1FE01F0A3FE4423E55C6DB25C
:10453000002D05DC13E0013DEAB26DB2002A0ED079
:104540002369002B0BD0380001F0CEFA0028F2D0FE
:10455000013D01F093FBEAB26DB2002AF0D1442391
:10456000FF22E25401F090FE01F004FA002800D08E
:1045700089E701F071FE86E702A801F03DFB16E72E
:1045800072B6FEE701F068FE90E72000243001F0EB
:10459000ABFA88E701F078FE00208AE701F068FEB8
:1045A0004523E55C6DB2002D12DD2600243604E0C3
:1045B000013DEAB26DB2002A0AD0636A002B07D02F
:1045C000300001F091FA0028F2D001F057FBEFE73C
:1045D0004523FF22E25401F057FE01F049FE442337
:1045E000E55C6DB2002D12DD2600103604E0013DC1
:1045F000EAB26DB2002A0AD02369002B07D030003E
:1046000001F072FA0028F2D001F038FBEFE7442302
:10461000FF22E25401F038FE01F0ACF9002048E737
:1046200070B505000C0082B0002938D050230193EA
:10463000019B502B01D072B6FEE700264622019B5B
:1046400001238B542160CB630E6401F011FE216CB9
:10465000E36B22684B43D0185B1A6260D218E260A9
:10466000FF234422A0602000A663A3540132A35478
:10467000103001F04DFD2000243001F049FD01F023
:1046800003FE4C230022E554002100232000A660F5
:104690002660E660FFF766FE200002B070BD72B6CD
:1046A000FEE7C046F0B54F464646D6460400C0B5C4
:1046B0001D000F001600002837D0002918D0022D49
:1046C00004D1E36B012B18D072B6FEE701F0EAFDCE
:1046D0000021A26BE36B804689469A4211D3404683
:1046E00001F0E4FD4846E0BCBA46B146A846F0BD3C
:1046F000036C002BE3D072B6FEE701F0D3FD8046D9
:10470000A36B45239A46E35C2A005BB299463900C5
:104710002000A36BFFF784FD4B46013307D1636A8A
:10472000002B12D101239946D9E772B6FEE701F0BA
:1047300035F98145F6D24B467F2B04D052460133E2
:104740005BB2A354EEE772B6FEE72000243001F01E
:10475000CBF90028E6D0002EE4D001233360E1E756
:10476000F0B5C64604000D0000B500281BD0036C50
:10477000002B01D072B6FEE70368002B15D001F0C4
:1047800091FDA36BE26B06009A4213D94522A75C08
:1047900001337FB29046A3637B1C13D1636A002B65
:1047A0001CD1012407E072B6FEE78368002BE6D037
:1047B00072B6FEE70024300001F078FD200080BCD6
:1047C000B846F0BD01F0EAF88742EAD27F2F11D057
:1047D000434601377FB2E7540124ECE72000243040
:1047E00001F082F90028DCD0002DDAD00123012469
:1047F0002B60E0E772B6FEE7F0B54746CE4680B5DF
:1048000085B0041E8846019200D138E1002900D10C
:104810002FE101F02DFDA56B002D00D031E1019BB2
:10482000002B00D1D0E0260002A801F0E5F94427D2
:10483000243601F029FD01F095F801F019FDE35D42
:104840005BB2013301D10023E3554522A35C5BB287
:10485000013301D10023A35401F016FD01A902A8E0
:1048600001F0D6F900285AD101F002FDA36B002B0C
:1048700000D0B1E001F008FD24239946A144484648
:10488000019901F0E1F801F0F3FC4523E55C6DB21C
:10489000002D05DC13E0013DEAB26DB2002A0ED016
:1048A000636A002B0BD0484601F01EF90028F2D0B5
:1048B000013D01F0E3F9EAB26DB2002AF0D14523DF
:1048C000FF22E25401F0E0FC01F0D2FC4423E55C5D
:1048D000343B99466DB2A144002D05DC13E0013D47
:1048E000EAB26DB2002A0ED02369002B0BD04846E5
:1048F00001F0FAF80028F2D0013D01F0BFF9EAB268
:104900006DB2002AF0D14423FF22E25401F0BCFC36
:1049100001F030F800284ED101F09EFC4BE001F090
:10492000A7FC4523E55C6DB2002D05DC13E0013DDD
:10493000EAB26DB2002A0ED0636A002B0BD03000B1
:1049400001F0D2F80028F2D0013D01F097F9EAB267
:104950006DB2002AF0D14523FF22E25401F094FC0D
:1049600001F086FC10239946E55DA1446DB2002D4F
:1049700005DC13E0013DEAB26DB2002A0ED02369D6
:10498000002B0BD0484601F0AFF80028F2D0013DD3
:1049900001F074F9EAB26DB2002AF0D1FF23E355B9
:1049A00001F072FC00F0E6FF01F062FCA36B002B4B
:1049B0000AD001F069FC01F05BFCA56B002D60D111
:1049C000019B002B00D034E701F05EFC002005B015
:1049D000C0BCB946B046F0BD01F056FC01F048FC41
:1049E0004523E55C213B99466DB2A144002D05DCD1
:1049F00013E0013DEAB26DB2002A0ED0636A002BCB
:104A00000BD0484601F070F80028F2D0013D01F0CB
:104A100035F9EAB26DB2002AF0D14523FF22E25403
:104A200001F032FC01F024FC4423E55C343B994660
:104A30006DB2A144002D05DC13E0013DEAB26DB278
:104A4000002A0ED02369002B0BD0484601F04CF809
:104A50000028F2D0013D01F011F9EAB26DB2002A4E
:104A6000F0D14423FF22E25401F00EFC00F082FF5B
:104A7000A1E7036C002B00D1CBE672B6FEE772B65D
:104A8000FEE7226C002A0AD0E168A3688918E16079
:104A9000994201D32168E160404605F06EFE013D78
:104AA000A5632369002B03D101F0EEFB01208EE703
:104AB0002000103001F018F80028F5D001F0CCFBF0
:104AC000F2E7C046F0B5CE46474680B585B0041E35
:104AD000019100D1EFE0036C002B00D094E001F0D5
:104AE000C7FBA36B002B00D053E1019B002B00D12F
:104AF0003EE102A801F080F80023260098464427F2
:104B0000243601F0C1FB00F02DFF01F0B1FBE35DA5
:104B10005BB2013301D10023E3554522A35C5BB2B4
:104B2000013301D10023A35401F0AEFB01A902A877
:104B300001F06EF8002869D101F09AFBA36B002BFD
:104B400000D0BDE001F0A0FB2368002B00D117E1ED
:104B500024239946A1444846019900F075FF01F0CD
:104B600087FB4523E55C6DB2002D05DC13E0013DBC
:104B7000EAB26DB2002A0ED0636A002B0BD0484611
:104B800000F0B2FF0028F2D0013D01F077F8EAB260
:104B90006DB2002AF0D14523FF22E25401F074FBEC
:104BA00001F066FB4423E55C6DB2002D17DD343B5C
:104BB0009946A14404E0013DEAB26DB2002A0ED04C
:104BC0002369002B0BD0484600F08EFF0028F2D05E
:104BD000013D01F053F8EAB26DB2002AF0D144234E
:104BE000FF22E25401F050FB00F0C4FE002800D187
:104BF000B3E001F03DFBA36B002B00D0C9E0019BAB
:104C0000002B00D07DE7B3E072B6FEE701F030FB89
:104C10004523E55C6DB2002D05DC13E0013DEAB2F1
:104C20006DB2002A0ED0636A002B0BD0300000F06A
:104C30005BFF0028F2D0013D01F020F8EAB26DB22E
:104C4000002AF0D14523FF22E25401F01DFB01F0C0
:104C50000FFBE55D6DB2002D17DD10239946A144D1
:104C600004E0013DEAB26DB2002A0ED02369002BA8
:104C70000BD0484600F038FF0028F2D0013D00F08C
:104C8000FDFFEAB26DB2002AF0D1FF23E35501F037
:104C9000FBFA00F06FFE01F0EBFAA36B002B0CD1D6
:104CA00001F0F2FA4346002B5AD1002005B0C0BCF7
:104CB000B946B046F0BD72B6FEE701F0E5FA98E7F6
:104CC00001F0E2FA01F0D4FA4523E55C6DB2002D63
:104CD00017DD213B9946A14404E0013DEAB26DB2E3
:104CE000002A0ED0636A002B0BD0484600F0FCFE71
:104CF0000028F2D0013D00F0C1FFEAB26DB2002AF7
:104D0000F0D14523FF22E25401F0BEFA01F0B0FADF
:104D10004423E55C6DB2002D17DD343B9946A14478
:104D200004E0013DEAB26DB2002A0ED02369002BE7
:104D30000BD0484600F0D8FE0028F2D0013D00F02C
:104D40009DFFEAB26DB2002AF0D14423FF22E25463
:104D500001F09AFA00F00EFE4BE701F07DFA48E709
:104D600001F086FA616A002905D1A06801F03CF8DB
:104D700001F08AFA99E70421236B1B68C91AF4E74A
:104D800001F076FAA06800F0A7FF804601F07CFAF7
:104D9000DEE6013BA3632368002B0FD02369002BC1
:104DA00003D101F071FA012080E72000103000F0FB
:104DB0009BFE0028F5D001F04FFAF2E701F05AF817
:104DC000A060EBE7F0B5C64600B5040001F050FA6C
:104DD000384A394E1368013313603368002B35D0DD
:104DE000364BE26A98461B68002B29D0344D354972
:104DF0000B6801330B60A364334B1968914200D2F6
:104E00001A6093009B189B00E9184A689068A2609A
:104E100084466746E060201D78609060EA586161D2
:104E20000132EA5001F030FA43461B68002B04D0EF
:104E30003368DA6AE36A9A4211D380BCB846F0BD9F
:104E40003368DB6A9342D1D83460CFE734601368AB
:104E5000012B07D0194BE26A9846194DC7E701F0BC
:104E6000FBF9EAE7164D280001F052F9280014304A
:104E700001F04EF92800283001F04AF928003C30B2
:104E800001F046F9114B9846180001F041F9104F16
:104E9000380001F03DF90F4801F03AF90E4801F0F1
:104EA00037F942460D4B1A600D4BE26A1F60034B07
:104EB00098469CE788210020342200207C21002095
:104EC000E42100206C21002080210020D02100203E
:104ED000BC210020A02100208C210020B82100202E
:104EE000B421002000222D4B70B51A600BF0C8FED3
:104EF0002B4B2C4A1B68C01A2B4B18601968106882
:104F000081423CD8294C1B68294D13602A682949E5
:104F10009300981880000858002821D1002A36D024
:104F2000501E83001E18B6008E59002E34D1002862
:104F30002DD0901E83001E18B6008E59002E2BD146
:104F4000002824D0D01E83001E18B6008E59002ED3
:104F500022D100281BD0043A9300981880000858EA
:104F60009B189B00CE18706808334068C9187060A1
:104F700088420ED0C36823602A60236870BD0B4C42
:104F80001E682568A96D091A8919A965BBE772B65B
:104F9000FEE7F0687060EDE70200E1E774210020B1
:104FA00058210020602100205C21002034220020B4
:104FB00080210020E42100200822F0B55746DE467B
:104FC0004E4645469246E0B54B688A445B6804000D
:104FD0000F0083B0534565D0DA685B6893460022C2
:104FE0009046314A7B609146304A01929A4539D0C9
:104FF000DE68351E3BD02B00296B34336360EB6ACF
:10500000E16123612B68256023626B6C6362AB6C8A
:10501000A3602B6D6361AB6DA3614B461B689D4222
:1050200028D00223237301F023F9AB6A019A93423B
:1050300035D001F029F9296B0B78A52B1FD100235E
:105040000133CA5CA52AFBD09B089BB223850123B0
:105050009C462C34E044B34519D07B685B687B6088
:105060009A45C5D1FB68DE687B60351EC3D14B46CF
:105070001D68C0E7002323730B78A52BDFD0002326
:10508000238501239C462C34E044B345E5D14046BA
:1050900003B0F0BCBB46B246A946A046F0BD012312
:1050A0002373C6E7CB6897E734220020A0210020B5
:1050B000F0B5DE4657464E4645465A4BE0B51A68AF
:1050C00083B0013294461A60002A5FD056490B68BB
:1050D0009C4562D3554B99461B681B68002B00D139
:1050E0009BE000239846524B524E9B46524B0191F7
:1050F0009A4639E0002159611168013911609A6AB4
:10510000002A0ED0D969186A556888604160190074
:1051100018318D4200D170E0002199621168013987
:1051200011605246D96A1268914201D95246116003
:105130008A0052189200B518686887689860DF6026
:105140007C6084605D61B3580133B3505B461B687B
:105150004246DB6A8B429B415B421A434B461B68CB
:1051600090461B68002B53D04B461B68DB68DB68FE
:105170005A68944549D35A699868D9681C1D81605A
:1051800048605068A042B5D15160B3E7274B1A6818
:105190001268002A1FD072B6FEE700239846244BFF
:1051A000244E9B465B461B68DA6A93009B189B0063
:1051B000F258224B1868431E9841012393429B41A9
:1051C0005B4218434346184303B0F0BCBB46B246AB
:1051D000A946A046F0BD1A4A196810681860116007
:1051E00018490A6801320A601A681268002A06D152
:1051F00001230D495B420B6069E750608CE71B6837
:105200000949DB681B680B6061E701990A60C9E71F
:10521000019901235B420B60C4E79846044B054E9D
:105220009B46F6E78421002068210020B821002059
:1052300034220020E421002080210020742100205D
:10524000B421002070210020F0B5DE4657464E46BE
:105250004546544CE0B5236883B0013B2360236886
:10526000002B00D081E0504B1B68002B7DD04F4BB2
:105270009C461B68002B00D190E04D4B4D4D98464D
:105280004D4B019499464D4B9A4600239B466346ED
:10529000DB68DB68D869196A9A6A8160486018001F
:1052A00056681830864200D172E0594699621168FA
:1052B000013911605A699868D968566881604860F8
:1052C000181D864262D01168013911604146DA6AC0
:1052D00009688A4201D941460A60910089188C0008
:1052E0002E1971688F689960DF60786088605E61F0
:1052F0002B5901332B514B461B68DB6A9A423FD92D
:10530000534601221A6063461B68002BBFD12C4B09
:10531000019C1A681268002A3CD01B68DB681A6876
:10532000284B1A60284E3568002D14D0012708E05C
:10533000FFF7BEFE002801D053461F60013D002D3F
:1053400008D02368002BF3D03368013D013333606C
:10535000002DF6D1356053461B68002B05D0164B47
:1053600001241B6800F078FF00E0002400F08CFFAF
:10537000200003B0F0BCBB46B246A946A046F0BD33
:1053800063461B68002B00D081E7C0E751609AE7B5
:1053900051608AE70B4B013A1A60C3E7074B9A4604
:1053A000C0E7C0466421002088210020A021002001
:1053B00080210020E42100203422002074210020DC
:1053C000B82100206821002078210020F8B52B4B5F
:1053D0004746CE4699462A4B80B59846294C2A4DD9
:1053E0002A4E2B4F2368012B01D900F035FF2B6883
:1053F000002B24D13368DB6A002BF3D12368012B07
:10540000F0D84B4642461B6812689B1A012BE9D91B
:105410003B6801333B604B461A6843461B689A421F
:1054200029D32B68002B13D03368DB6A002B20D0E4
:1054300000F01EFF3B68002B07D172B6FEE7336811
:10544000DB6A002BCED12368CCE7FFF7FDFEC9E76E
:105450003368DB6A002BEBD12368012BE8D84B467D
:10546000186843461B68C01A0128E1D9FEF784FA80
:10547000DEE72368DCE772B6FEE7C046682100205D
:1054800084210020E42100208021002034220020FB
:1054900064210020F8B5CE46474604000D0080B5D3
:1054A000424B002831D02100343120686960E16A24
:1054B0002C602961216B2862606CE9616862A06CD4
:1054C000A860206D6861A06DA861052A32D01B68B4
:1054D0009C421CD02A73032A1CD000F0C9FE344B16
:1054E000A26A9A424ED000F0CFFE216B0B78A52B1A
:1054F0004ED100230133CA5CA52AFBD09B089BB286
:105500002B85C0BCB946B046F8BD1C68CBE700236C
:105510002B73EBE7274E336801333360A36A002B0C
:105520003BD002232B7300F0A3FE3368002B2CD159
:1055300072B6FEE71A680023944221D000F098FE6C
:105540001D4B66691B68A76A98461C4B1B689946E9
:1055500000F09AFE164B216B9F4223D0464519D08E
:105560004E4517D0164A0123964209D1A26A01334B
:10557000002A05D15E33E35C013B5A1E934102339E
:105580002B73B3E701232B73ADE7FFF75DFEA4E7B1
:105590000023B5E702232B73A8E76023E35C012B0C
:1055A000BFD0C0E701232B73A0E7C0463422002000
:1055B000A021002064210020B8210020B421002077
:1055C0008C210020F0B54746CE4680B583B0984682
:1055D0000B9B07000D0014000C9E002B0AD0002E20
:1055E00006D064230193019B642B05D072B6FEE7BD
:1055F00072B6FEE772B6FEE7642200213000019B1E
:1056000005F04AF80B9B022233636123A400F25495
:10561000A52122000B9805F03FF8336B043C1C19C0
:1056200007239C437464002D4BD034222B78B35451
:10563000002B43D06B780132B354002B3ED0AB78B3
:105640000132B354002B39D0EB780132B354002B24
:1056500034D02B790132B354002B2FD06B79013227
:10566000B354002B2AD0AB790132B354002B25D090
:10567000EB790132B354002B20D02B7A0132B35492
:10568000002B1BD06B7A0132B354002B16D0AB7AAF
:105690000132B354002B11D0EB7A0132B354002BFA
:1056A0000CD02B7B0132B354002B07D06B7B013223
:1056B000B354002B02D04223AA7BF254432300228E
:1056C000F2540A9B032B01D972B6FEE7351DF36233
:1056D0003365280000F028FD3000183000F024FD6C
:1056E00004230A9A39009B1AB361424620003661AE
:1056F000766200F09FFD306000F0BAFD394B3A4F02
:105700001A6801321A603A68002A34D0374BF26ABC
:1057100098461B68002B04D13B68DB6A934200D893
:105720003E60334C33490B6801330B60B364324B3A
:105730001968914200D21A6093009B189B00E118EF
:105740004A689068B260F06045609560E2587161A7
:105750000132E25000F098FD43461B68002B04D054
:105760003B68DA6AF36A9A420ED3300003B0C0BCD9
:10577000B946B046F0BD3E601B68012B07D01B4BFD
:10578000F26A98461A4CCDE700F066FDEDE7184C3A
:10579000200000F0BDFC2000143000F0B9FC200017
:1057A000283000F0B5FC20003C3000F0B1FC134B79
:1057B0009946180000F0ACFC114A1000904600F029
:1057C000A7FC104800F0A4FC0F4800F0A1FC4A46DA
:1057D0000E4B1A6042460E4B1A60044BF26A984612
:1057E000A0E7C04688210020342200207C21002030
:1057F000E42100206C21002080210020D021002005
:10580000BC210020A02100208C210020B8210020F4
:10581000B4210020F0B5C64600B5040082B00028CF
:105820000CD01D4D2B6801332B602B68012B0BD046
:1058300072B6FEE7FFF708FD002801D100F00CFD6D
:1058400002B080BCB846F0BD144B154E1F68154B16
:10585000E4191B689846144B1B68306801930430A8
:1058600000F07EFC336831685C600431A74209D9DE
:10587000019800F05DFC00F0FBFC2B68002BD9D1F7
:1058800072B6FEE7404600F053FC084B1A6894429B
:10589000F1D21C60EFE7C046642100208421002083
:1058A00034220020B8210020B421002068210020EB
:1058B000642330B583B00193019B642B01D072B691
:1058C000FEE7204C642200212000019B04F0E4FE4E
:1058D00061230222E25480221B4DA521D200280020
:1058E000256304F0D9FEFF239B009C4607236544F3
:1058F0009D43164B201D6363656400F015FC20007A
:10590000183000F011FC0423002211492800A36183
:105910002461646200F08EFC20602000FFF752FAE0
:1059200072B601220B4B52421A600B4B02321A60C4
:1059300000220A4B1A6000F0F3FC094B1B6803B00D
:1059400030BDC046F4200020F41C002049444C45E2
:10595000CD530410682100207C21002084210020E8
:10596000DC390610024A1368013313607047C046E1
:105970006421002010B500F07BFC044B1B68002B59
:1059800001D172B6FEE7FFF75FFC10BD6421002075
:10599000014B18687047C04684210020014B1868ED
:1059A0007047C0468821002070B5124D124A2B68FE
:1059B00011681B180400994201D272B6FEE7126802
:1059C0009A4203D02B681B192B6070BD0B4B1B68D0
:1059D000002B01D172B6FEE7002801D172B6FEE7B6
:1059E00000F046FC064A013C13680133136000F0E6
:1059F0004BFCE7E78421002068210020642100207F
:105A000078210020064B10B51B68002B02D1FFF750
:105A10004FFB10BD034A0020136801331360F8E701
:105A20006421002078210020054B10B51B68002B55
:105A300003D00122034B1A6010BDFFF753FAFBE7B6
:105A40006421002074210020F0B5C6460C0000B58A
:105A5000002821D01E4D2968183100F069FB1D4B2C
:105A60001E681D4B1F681D4B1B6828689846043034
:105A700000F076FB631C11D02B682968A4195C60C8
:105A80000431A6421FD8380000F052FB144B1A68AC
:105A9000944215D21C6013E072B6FEE7114B2968E0
:105AA0005A688A6090682968C86029680431416032
:105AB0002968043191602A6853611A6801321A60BA
:105AC00080BCB846F0BD404600F032FBF8E7C04667
:105AD0003422002084210020B8210020B42100209D
